:100000000C9434000C9470000C9470000C947000EC
:100010000C9470000C9470000C9462000C947000AE
:100020000C9470000C9470000C9470000C94700090
:100030000C9470000C9470000C9470000C94700080
:100040000C9483000C9470000C94C5000C94700008
:100050000C9470000C9470000C9470000C94700060
:100060000C9470000C9470001124A0E0B3E0ADBFBC
:10007000BEBF0F92A0E0B3E0CFE4D3E0E0E8F7E04A
:10008000AC17BD0719F005900D92FACF0E94BE0182
:100090000E94C8010E940B02AA1BBB1B51E1881FD2
:1000A000991F5A9541F0AA1FBB1FA617B707B8F3AF
:1000B000A61BB70BF4CF80959095682F792F8A2FC8
:1000C0009B2F08950F930027A89504BF009160000F
:1000D0000861009360000027009360000F9118955D
:1000E0008895FECFFA01DC01E030F10519F06D933F
:1000F0003197FACF0895DC01A030B10511F08C9151
:1001000008950E94B8010F921F920FB60F9211240A
:100110002F933F934F935F936F937F938F939F930F
:100120008091D3039091D4032091D5033091D603CD
:100130004091D7035091D8036091D9037091DA03AD
:100140008058914C2F4F3F4F4F4F5F4F6F4F7F4F16
:100150005093D8034093D7037093DA036093D90385
:100160009093D4038093D3033093D6032093D50385
:100170009F918F917F916F915F914F913F912F91BF
:100180000F900FBE1F900F9018950F921F920FB6F1
:100190000F9211242F938F939F93AF93BF938091CE
:1001A000C6009091C0009C719030A1F49091CF0353
:1001B0002091D003921B903869F09091CF039395D2
:1001C0009093CF039091CF039F77A92FBB27A15B7B
:1001D000BC4F8C93BF91AF919F918F912F910F90B6
:1001E0000FBE1F900F9018951F93162F0E940F019E
:1001F000DB011197123049F0A030B10571F0982F52
:1002000090952C9129232C93DB01A030B10529F086
:100210009C91982B9C931F9108950E94B80188305F
:1002200028F491E08A9552F0990FFCCF803140F488
:10023000885091E08A955AF0990FFCCF65E20EC084
:10024000805121E0982F9A9522F0220FFCCF68E28E
:1002500005C08830912D08F4922F6BE270E0892F51
:10026000089561E00E9435010895EF92FF920F9387
:100270001F93062F0E940F017B01182FC7010E94B8
:100280007B00D701A030B10569F00170003019F48E
:100290001095812301C0812B8C931F910F91FF90AA
:1002A000EF9008950E94B801612D0E9435010895D4
:1002B000EF92FF920F931F938B017C0180E093E0FC
:1002C00066E170E00E946C01C701B8010E946C01F8
:1002D0000E94A0010E94A7018F929F92AF92BF92AD
:1002E000CF92DF92EF92FF920F931F936B017C01ED
:1002F00080E090E08C015C01AC0181E00C151D05F3
:1003000095014207530708F4812D8170803069F40C
:10031000D701A00FB11F8C914A010E94AA01A4012C
:100320000F5F1F4F4F4F5F4FE8CF1F910F91FF900F
:10033000EF90DF90CF90BF90AF909F908F900895F7
:100340008DE00E94AA018AE00E94AA010895F89413
:100350008895FECF9091C00090729030D9F3809331
:10036000C60008958DE293E062E170E00E945801BA
:1003700086E193E067E170E00E945801AFE4B3E0EA
:100380008BED93E0A817B90711F01D92FBCF0895EC
:100390001092C50087E68093C40088E98093C1006D
:1003A00086E08093C20080E090E09093DA0380932F
:1003B000D9039093D8038093D7039093D603809367
:1003C000D5039093D4038093D30380916E00887FEC
:1003D00080936E0016BC8FEF87BD83E084BD81E003
:1003E00085BD80916E00816080936E008FB7F89418
:1003F0002091D9033091DA032091D7033091D803AB
:100400002091D5033091D6032091D3033091D403AA
:100410008FBF789408952BED33E080E299E0821B42
:10042000930B61E270E00E944C00AB0180E099E028
:10043000841B950B9093D2038093D103612D0E946E
:1004400072000E946E02CF92DF92EF92FF920F93A2
:100450001F93CFB6F894E091D903F091DA03A091FD
:10046000D703B091D8030091D5031091D603E09043
:10047000D303F090D403CFBEE20EF31E041F151F6A
:10048000A61FB71FE81FF91F88958FB7F894209112
:10049000D9033091DA034091D7035091D80360918A
:1004A000D5037091D603C090D303D090D4038FBFEF
:1004B00081E0CE14DF04600771074A075B072E074F
:1004C0003F070CF0812D8170803009F0DDCF1F9146
:1004D0000F91FF90EF90DF90CF9008952F923F9271
:1004E0004F925F926F927F928F929F92AF92BF9244
:1004F000CF92DF92EF92FF920F931F93CF93DF93F0
:10050000CDB7DEB7E6970FB6F894DEBF0FBECDBF0E
:1005100086E197E18DAB9EAB84E195E18BAB9CAB23
:1005200082E193E189AB9AAB80E191E18FA798AB2F
:1005300086E097E08DA79EA784E095E08BA79CA717
:1005400082E093E089A79AA780E091E08FA398A723
:1005500020E030E0CE0187965C01CE018F964C0101
:100560008901A90181E0083011054207530708F409
:10057000812D690181708030F1F4D501A00FB11F88
:10058000FC908F2D62E03A010E94F4008F2D0E94B2
:100590005401D401A00FB11FFC908F2D62E00E9486
:1005A000F4008F2D0E943101A3010F5F1F4F4F4FA9
:1005B0005F4F9601D7CF83EC8D8B89E995EA8B8BC2
:1005C0009C8B85EA99E9898B9A8B8FEF93EC8F87C7
:1005D000988B82E491E88D879E8788E194E28B87EF
:1005E0009C8784E298E189879A8781E892E48F83E7
:1005F0009887CE0107968D839E830F9649E050E041
:100600006FEF0E94720088E198E18DA39EA32FEF07
:1006100038E12BA33CA328E13FEF29A33AA38F8F16
:1006200098A301E08CE061E00E94F400112D412CC0
:10063000B601FB01DB01842D282F33272E5F3F4FAE
:10064000AB014F4F5F4F81E0EB83FC83E217F30771
:10065000A983BA83A407B50708F4812D817080307F
:1006600009F07AC09B01AB0181E0283031054607D3
:10067000570708F4812D8170803009F04EC0502E4C
:10068000E12E120FF12E612E77248D819E81680E4E
:10069000791E8B01FB0119014A0181E00830110527
:1006A000E607F70708F4812D81708030D1F48F2D93
:1006B000803208F05DC05F01D3016C91802F8A9574
:1006C00012F06695FCCF6170D801A15CBC4F8C9193
:1006D0000E9435010F5F1F4FF501EF4FFF4FB6012D
:1006E000DCCFD101A95BBC4FFC908F2D0E9454013F
:1006F00020E432E44FE050E0B601C6010E9423023C
:100700008F2D0E943101A4019101B6012F5F3F4F4F
:100710004F4F5F4F1E2D052DA7CF86B180718030C2
:1007200091F420E836E948E950E0CB010E94230229
:1007300086B180718030E1F38AE0942D903009F029
:10074000812D482EB601EB81FC81A981BA81EF5F32
:10075000FF4FAF4FBF4F6FCF100F802F81951030DD
:10076000982F09F0902F183109F0892F082F61CFA9
:100770000E94B20100000000000000000000000024
:1007800070616E69633A2072756E74696D6520657B
:1007900072726F723A206E696C20706F696E746548
:1007A000722064657265666572656E6365696E6404
:1007B0006578206F7574206F662072616E676500C2
:0F07C00001020304050607101112131415161772
:00000001FF
